{
  "abi": [
    {
      "type": "constructor",
      "inputs": [
        {
          "name": "initialOwner",
          "type": "address",
          "internalType": "address"
        }
      ],
      "stateMutability": "nonpayable"
    },
    {
      "type": "function",
      "name": "allowance",
      "inputs": [
        {
          "name": "owner",
          "type": "address",
          "internalType": "address"
        },
        {
          "name": "spender",
          "type": "address",
          "internalType": "address"
        },
        {
          "name": "id",
          "type": "uint256",
          "internalType": "uint256"
        }
      ],
      "outputs": [
        {
          "name": "amount",
          "type": "uint256",
          "internalType": "uint256"
        }
      ],
      "stateMutability": "view"
    },
    {
      "type": "function",
      "name": "approve",
      "inputs": [
        {
          "name": "spender",
          "type": "address",
          "internalType": "address"
        },
        {
          "name": "id",
          "type": "uint256",
          "internalType": "uint256"
        },
        {
          "name": "amount",
          "type": "uint256",
          "internalType": "uint256"
        }
      ],
      "outputs": [
        {
          "name": "",
          "type": "bool",
          "internalType": "bool"
        }
      ],
      "stateMutability": "nonpayable"
    },
    {
      "type": "function",
      "name": "balanceOf",
      "inputs": [
        {
          "name": "owner",
          "type": "address",
          "internalType": "address"
        },
        {
          "name": "id",
          "type": "uint256",
          "internalType": "uint256"
        }
      ],
      "outputs": [
        {
          "name": "balance",
          "type": "uint256",
          "internalType": "uint256"
        }
      ],
      "stateMutability": "view"
    },
    {
      "type": "function",
      "name": "burn",
      "inputs": [
        {
          "name": "from",
          "type": "address",
          "internalType": "address"
        },
        {
          "name": "id",
          "type": "uint256",
          "internalType": "uint256"
        },
        {
          "name": "amount",
          "type": "uint256",
          "internalType": "uint256"
        }
      ],
      "outputs": [],
      "stateMutability": "nonpayable"
    },
    {
      "type": "function",
      "name": "clear",
      "inputs": [
        {
          "name": "currency",
          "type": "address",
          "internalType": "Currency"
        },
        {
          "name": "amount",
          "type": "uint256",
          "internalType": "uint256"
        }
      ],
      "outputs": [],
      "stateMutability": "nonpayable"
    },
    {
      "type": "function",
      "name": "collectProtocolFees",
      "inputs": [
        {
          "name": "recipient",
          "type": "address",
          "internalType": "address"
        },
        {
          "name": "currency",
          "type": "address",
          "internalType": "Currency"
        },
        {
          "name": "amount",
          "type": "uint256",
          "internalType": "uint256"
        }
      ],
      "outputs": [
        {
          "name": "amountCollected",
          "type": "uint256",
          "internalType": "uint256"
        }
      ],
      "stateMutability": "nonpayable"
    },
    {
      "type": "function",
      "name": "donate",
      "inputs": [
        {
          "name": "key",
          "type": "tuple",
          "internalType": "struct PoolKey",
          "components": [
            {
              "name": "currency0",
              "type": "address",
              "internalType": "Currency"
            },
            {
              "name": "currency1",
              "type": "address",
              "internalType": "Currency"
            },
            {
              "name": "fee",
              "type": "uint24",
              "internalType": "uint24"
            },
            {
              "name": "tickSpacing",
              "type": "int24",
              "internalType": "int24"
            },
            {
              "name": "hooks",
              "type": "address",
              "internalType": "contract IHooks"
            }
          ]
        },
        {
          "name": "amount0",
          "type": "uint256",
          "internalType": "uint256"
        },
        {
          "name": "amount1",
          "type": "uint256",
          "internalType": "uint256"
        },
        {
          "name": "hookData",
          "type": "bytes",
          "internalType": "bytes"
        }
      ],
      "outputs": [
        {
          "name": "delta",
          "type": "int256",
          "internalType": "BalanceDelta"
        }
      ],
      "stateMutability": "nonpayable"
    },
    {
      "type": "function",
      "name": "extsload",
      "inputs": [
        {
          "name": "slot",
          "type": "bytes32",
          "internalType": "bytes32"
        }
      ],
      "outputs": [
        {
          "name": "",
          "type": "bytes32",
          "internalType": "bytes32"
        }
      ],
      "stateMutability": "view"
    },
    {
      "type": "function",
      "name": "extsload",
      "inputs": [
        {
          "name": "startSlot",
          "type": "bytes32",
          "internalType": "bytes32"
        },
        {
          "name": "nSlots",
          "type": "uint256",
          "internalType": "uint256"
        }
      ],
      "outputs": [
        {
          "name": "",
          "type": "bytes32[]",
          "internalType": "bytes32[]"
        }
      ],
      "stateMutability": "view"
    },
    {
      "type": "function",
      "name": "extsload",
      "inputs": [
        {
          "name": "slots",
          "type": "bytes32[]",
          "internalType": "bytes32[]"
        }
      ],
      "outputs": [
        {
          "name": "",
          "type": "bytes32[]",
          "internalType": "bytes32[]"
        }
      ],
      "stateMutability": "view"
    },
    {
      "type": "function",
      "name": "exttload",
      "inputs": [
        {
          "name": "slots",
          "type": "bytes32[]",
          "internalType": "bytes32[]"
        }
      ],
      "outputs": [
        {
          "name": "",
          "type": "bytes32[]",
          "internalType": "bytes32[]"
        }
      ],
      "stateMutability": "view"
    },
    {
      "type": "function",
      "name": "exttload",
      "inputs": [
        {
          "name": "slot",
          "type": "bytes32",
          "internalType": "bytes32"
        }
      ],
      "outputs": [
        {
          "name": "",
          "type": "bytes32",
          "internalType": "bytes32"
        }
      ],
      "stateMutability": "view"
    },
    {
      "type": "function",
      "name": "initialize",
      "inputs": [
        {
          "name": "key",
          "type": "tuple",
          "internalType": "struct PoolKey",
          "components": [
            {
              "name": "currency0",
              "type": "address",
              "internalType": "Currency"
            },
            {
              "name": "currency1",
              "type": "address",
              "internalType": "Currency"
            },
            {
              "name": "fee",
              "type": "uint24",
              "internalType": "uint24"
            },
            {
              "name": "tickSpacing",
              "type": "int24",
              "internalType": "int24"
            },
            {
              "name": "hooks",
              "type": "address",
              "internalType": "contract IHooks"
            }
          ]
        },
        {
          "name": "sqrtPriceX96",
          "type": "uint160",
          "internalType": "uint160"
        }
      ],
      "outputs": [
        {
          "name": "tick",
          "type": "int24",
          "internalType": "int24"
        }
      ],
      "stateMutability": "nonpayable"
    },
    {
      "type": "function",
      "name": "isOperator",
      "inputs": [
        {
          "name": "owner",
          "type": "address",
          "internalType": "address"
        },
        {
          "name": "operator",
          "type": "address",
          "internalType": "address"
        }
      ],
      "outputs": [
        {
          "name": "isOperator",
          "type": "bool",
          "internalType": "bool"
        }
      ],
      "stateMutability": "view"
    },
    {
      "type": "function",
      "name": "mint",
      "inputs": [
        {
          "name": "to",
          "type": "address",
          "internalType": "address"
        },
        {
          "name": "id",
          "type": "uint256",
          "internalType": "uint256"
        },
        {
          "name": "amount",
          "type": "uint256",
          "internalType": "uint256"
        }
      ],
      "outputs": [],
      "stateMutability": "nonpayable"
    },
    {
      "type": "function",
      "name": "modifyLiquidity",
      "inputs": [
        {
          "name": "key",
          "type": "tuple",
          "internalType": "struct PoolKey",
          "components": [
            {
              "name": "currency0",
              "type": "address",
              "internalType": "Currency"
            },
            {
              "name": "currency1",
              "type": "address",
              "internalType": "Currency"
            },
            {
              "name": "fee",
              "type": "uint24",
              "internalType": "uint24"
            },
            {
              "name": "tickSpacing",
              "type": "int24",
              "internalType": "int24"
            },
            {
              "name": "hooks",
              "type": "address",
              "internalType": "contract IHooks"
            }
          ]
        },
        {
          "name": "params",
          "type": "tuple",
          "internalType": "struct ModifyLiquidityParams",
          "components": [
            {
              "name": "tickLower",
              "type": "int24",
              "internalType": "int24"
            },
            {
              "name": "tickUpper",
              "type": "int24",
              "internalType": "int24"
            },
            {
              "name": "liquidityDelta",
              "type": "int256",
              "internalType": "int256"
            },
            {
              "name": "salt",
              "type": "bytes32",
              "internalType": "bytes32"
            }
          ]
        },
        {
          "name": "hookData",
          "type": "bytes",
          "internalType": "bytes"
        }
      ],
      "outputs": [
        {
          "name": "callerDelta",
          "type": "int256",
          "internalType": "BalanceDelta"
        },
        {
          "name": "feesAccrued",
          "type": "int256",
          "internalType": "BalanceDelta"
        }
      ],
      "stateMutability": "nonpayable"
    },
    {
      "type": "function",
      "name": "owner",
      "inputs": [],
      "outputs": [
        {
          "name": "",
          "type": "address",
          "internalType": "address"
        }
      ],
      "stateMutability": "view"
    },
    {
      "type": "function",
      "name": "protocolFeeController",
      "inputs": [],
      "outputs": [
        {
          "name": "",
          "type": "address",
          "internalType": "address"
        }
      ],
      "stateMutability": "view"
    },
    {
      "type": "function",
      "name": "protocolFeesAccrued",
      "inputs": [
        {
          "name": "currency",
          "type": "address",
          "internalType": "Currency"
        }
      ],
      "outputs": [
        {
          "name": "amount",
          "type": "uint256",
          "internalType": "uint256"
        }
      ],
      "stateMutability": "view"
    },
    {
      "type": "function",
      "name": "setOperator",
      "inputs": [
        {
          "name": "operator",
          "type": "address",
          "internalType": "address"
        },
        {
          "name": "approved",
          "type": "bool",
          "internalType": "bool"
        }
      ],
      "outputs": [
        {
          "name": "",
          "type": "bool",
          "internalType": "bool"
        }
      ],
      "stateMutability": "nonpayable"
    },
    {
      "type": "function",
      "name": "setProtocolFee",
      "inputs": [
        {
          "name": "key",
          "type": "tuple",
          "internalType": "struct PoolKey",
          "components": [
            {
              "name": "currency0",
              "type": "address",
              "internalType": "Currency"
            },
            {
              "name": "currency1",
              "type": "address",
              "internalType": "Currency"
            },
            {
              "name": "fee",
              "type": "uint24",
              "internalType": "uint24"
            },
            {
              "name": "tickSpacing",
              "type": "int24",
              "internalType": "int24"
            },
            {
              "name": "hooks",
              "type": "address",
              "internalType": "contract IHooks"
            }
          ]
        },
        {
          "name": "newProtocolFee",
          "type": "uint24",
          "internalType": "uint24"
        }
      ],
      "outputs": [],
      "stateMutability": "nonpayable"
    },
    {
      "type": "function",
      "name": "setProtocolFeeController",
      "inputs": [
        {
          "name": "controller",
          "type": "address",
          "internalType": "address"
        }
      ],
      "outputs": [],
      "stateMutability": "nonpayable"
    },
    {
      "type": "function",
      "name": "settle",
      "inputs": [],
      "outputs": [
        {
          "name": "",
          "type": "uint256",
          "internalType": "uint256"
        }
      ],
      "stateMutability": "payable"
    },
    {
      "type": "function",
      "name": "settleFor",
      "inputs": [
        {
          "name": "recipient",
          "type": "address",
          "internalType": "address"
        }
      ],
      "outputs": [
        {
          "name": "",
          "type": "uint256",
          "internalType": "uint256"
        }
      ],
      "stateMutability": "payable"
    },
    {
      "type": "function",
      "name": "supportsInterface",
      "inputs": [
        {
          "name": "interfaceId",
          "type": "bytes4",
          "internalType": "bytes4"
        }
      ],
      "outputs": [
        {
          "name": "",
          "type": "bool",
          "internalType": "bool"
        }
      ],
      "stateMutability": "view"
    },
    {
      "type": "function",
      "name": "swap",
      "inputs": [
        {
          "name": "key",
          "type": "tuple",
          "internalType": "struct PoolKey",
          "components": [
            {
              "name": "currency0",
              "type": "address",
              "internalType": "Currency"
            },
            {
              "name": "currency1",
              "type": "address",
              "internalType": "Currency"
            },
            {
              "name": "fee",
              "type": "uint24",
              "internalType": "uint24"
            },
            {
              "name": "tickSpacing",
              "type": "int24",
              "internalType": "int24"
            },
            {
              "name": "hooks",
              "type": "address",
              "internalType": "contract IHooks"
            }
          ]
        },
        {
          "name": "params",
          "type": "tuple",
          "internalType": "struct SwapParams",
          "components": [
            {
              "name": "zeroForOne",
              "type": "bool",
              "internalType": "bool"
            },
            {
              "name": "amountSpecified",
              "type": "int256",
              "internalType": "int256"
            },
            {
              "name": "sqrtPriceLimitX96",
              "type": "uint160",
              "internalType": "uint160"
            }
          ]
        },
        {
          "name": "hookData",
          "type": "bytes",
          "internalType": "bytes"
        }
      ],
      "outputs": [
        {
          "name": "swapDelta",
          "type": "int256",
          "internalType": "BalanceDelta"
        }
      ],
      "stateMutability": "nonpayable"
    },
    {
      "type": "function",
      "name": "sync",
      "inputs": [
        {
          "name": "currency",
          "type": "address",
          "internalType": "Currency"
        }
      ],
      "outputs": [],
      "stateMutability": "nonpayable"
    },
    {
      "type": "function",
      "name": "take",
      "inputs": [
        {
          "name": "currency",
          "type": "address",
          "internalType": "Currency"
        },
        {
          "name": "to",
          "type": "address",
          "internalType": "address"
        },
        {
          "name": "amount",
          "type": "uint256",
          "internalType": "uint256"
        }
      ],
      "outputs": [],
      "stateMutability": "nonpayable"
    },
    {
      "type": "function",
      "name": "transfer",
      "inputs": [
        {
          "name": "receiver",
          "type": "address",
          "internalType": "address"
        },
        {
          "name": "id",
          "type": "uint256",
          "internalType": "uint256"
        },
        {
          "name": "amount",
          "type": "uint256",
          "internalType": "uint256"
        }
      ],
      "outputs": [
        {
          "name": "",
          "type": "bool",
          "internalType": "bool"
        }
      ],
      "stateMutability": "nonpayable"
    },
    {
      "type": "function",
      "name": "transferFrom",
      "inputs": [
        {
          "name": "sender",
          "type": "address",
          "internalType": "address"
        },
        {
          "name": "receiver",
          "type": "address",
          "internalType": "address"
        },
        {
          "name": "id",
          "type": "uint256",
          "internalType": "uint256"
        },
        {
          "name": "amount",
          "type": "uint256",
          "internalType": "uint256"
        }
      ],
      "outputs": [
        {
          "name": "",
          "type": "bool",
          "internalType": "bool"
        }
      ],
      "stateMutability": "nonpayable"
    },
    {
      "type": "function",
      "name": "transferOwnership",
      "inputs": [
        {
          "name": "newOwner",
          "type": "address",
          "internalType": "address"
        }
      ],
      "outputs": [],
      "stateMutability": "nonpayable"
    },
    {
      "type": "function",
      "name": "unlock",
      "inputs": [
        {
          "name": "data",
          "type": "bytes",
          "internalType": "bytes"
        }
      ],
      "outputs": [
        {
          "name": "result",
          "type": "bytes",
          "internalType": "bytes"
        }
      ],
      "stateMutability": "nonpayable"
    },
    {
      "type": "function",
      "name": "updateDynamicLPFee",
      "inputs": [
        {
          "name": "key",
          "type": "tuple",
          "internalType": "struct PoolKey",
          "components": [
            {
              "name": "currency0",
              "type": "address",
              "internalType": "Currency"
            },
            {
              "name": "currency1",
              "type": "address",
              "internalType": "Currency"
            },
            {
              "name": "fee",
              "type": "uint24",
              "internalType": "uint24"
            },
            {
              "name": "tickSpacing",
              "type": "int24",
              "internalType": "int24"
            },
            {
              "name": "hooks",
              "type": "address",
              "internalType": "contract IHooks"
            }
          ]
        },
        {
          "name": "newDynamicLPFee",
          "type": "uint24",
          "internalType": "uint24"
        }
      ],
      "outputs": [],
      "stateMutability": "nonpayable"
    },
    {
      "type": "event",
      "name": "Approval",
      "inputs": [
        {
          "name": "owner",
          "type": "address",
          "indexed": true,
          "internalType": "address"
        },
        {
          "name": "spender",
          "type": "address",
          "indexed": true,
          "internalType": "address"
        },
        {
          "name": "id",
          "type": "uint256",
          "indexed": true,
          "internalType": "uint256"
        },
        {
          "name": "amount",
          "type": "uint256",
          "indexed": false,
          "internalType": "uint256"
        }
      ],
      "anonymous": false
    },
    {
      "type": "event",
      "name": "Donate",
      "inputs": [
        {
          "name": "id",
          "type": "bytes32",
          "indexed": true,
          "internalType": "PoolId"
        },
        {
          "name": "sender",
          "type": "address",
          "indexed": true,
          "internalType": "address"
        },
        {
          "name": "amount0",
          "type": "uint256",
          "indexed": false,
          "internalType": "uint256"
        },
        {
          "name": "amount1",
          "type": "uint256",
          "indexed": false,
          "internalType": "uint256"
        }
      ],
      "anonymous": false
    },
    {
      "type": "event",
      "name": "Initialize",
      "inputs": [
        {
          "name": "id",
          "type": "bytes32",
          "indexed": true,
          "internalType": "PoolId"
        },
        {
          "name": "currency0",
          "type": "address",
          "indexed": true,
          "internalType": "Currency"
        },
        {
          "name": "currency1",
          "type": "address",
          "indexed": true,
          "internalType": "Currency"
        },
        {
          "name": "fee",
          "type": "uint24",
          "indexed": false,
          "internalType": "uint24"
        },
        {
          "name": "tickSpacing",
          "type": "int24",
          "indexed": false,
          "internalType": "int24"
        },
        {
          "name": "hooks",
          "type": "address",
          "indexed": false,
          "internalType": "contract IHooks"
        },
        {
          "name": "sqrtPriceX96",
          "type": "uint160",
          "indexed": false,
          "internalType": "uint160"
        },
        {
          "name": "tick",
          "type": "int24",
          "indexed": false,
          "internalType": "int24"
        }
      ],
      "anonymous": false
    },
    {
      "type": "event",
      "name": "ModifyLiquidity",
      "inputs": [
        {
          "name": "id",
          "type": "bytes32",
          "indexed": true,
          "internalType": "PoolId"
        },
        {
          "name": "sender",
          "type": "address",
          "indexed": true,
          "internalType": "address"
        },
        {
          "name": "tickLower",
          "type": "int24",
          "indexed": false,
          "internalType": "int24"
        },
        {
          "name": "tickUpper",
          "type": "int24",
          "indexed": false,
          "internalType": "int24"
        },
        {
          "name": "liquidityDelta",
          "type": "int256",
          "indexed": false,
          "internalType": "int256"
        },
        {
          "name": "salt",
          "type": "bytes32",
          "indexed": false,
          "internalType": "bytes32"
        }
      ],
      "anonymous": false
    },
    {
      "type": "event",
      "name": "OperatorSet",
      "inputs": [
        {
          "name": "owner",
          "type": "address",
          "indexed": true,
          "internalType": "address"
        },
        {
          "name": "operator",
          "type": "address",
          "indexed": true,
          "internalType": "address"
        },
        {
          "name": "approved",
          "type": "bool",
          "indexed": false,
          "internalType": "bool"
        }
      ],
      "anonymous": false
    },
    {
      "type": "event",
      "name": "OwnershipTransferred",
      "inputs": [
        {
          "name": "user",
          "type": "address",
          "indexed": true,
          "internalType": "address"
        },
        {
          "name": "newOwner",
          "type": "address",
          "indexed": true,
          "internalType": "address"
        }
      ],
      "anonymous": false
    },
    {
      "type": "event",
      "name": "ProtocolFeeControllerUpdated",
      "inputs": [
        {
          "name": "protocolFeeController",
          "type": "address",
          "indexed": true,
          "internalType": "address"
        }
      ],
      "anonymous": false
    },
    {
      "type": "event",
      "name": "ProtocolFeeUpdated",
      "inputs": [
        {
          "name": "id",
          "type": "bytes32",
          "indexed": true,
          "internalType": "PoolId"
        },
        {
          "name": "protocolFee",
          "type": "uint24",
          "indexed": false,
          "internalType": "uint24"
        }
      ],
      "anonymous": false
    },
    {
      "type": "event",
      "name": "Swap",
      "inputs": [
        {
          "name": "id",
          "type": "bytes32",
          "indexed": true,
          "internalType": "PoolId"
        },
        {
          "name": "sender",
          "type": "address",
          "indexed": true,
          "internalType": "address"
        },
        {
          "name": "amount0",
          "type": "int128",
          "indexed": false,
          "internalType": "int128"
        },
        {
          "name": "amount1",
          "type": "int128",
          "indexed": false,
          "internalType": "int128"
        },
        {
          "name": "sqrtPriceX96",
          "type": "uint160",
          "indexed": false,
          "internalType": "uint160"
        },
        {
          "name": "liquidity",
          "type": "uint128",
          "indexed": false,
          "internalType": "uint128"
        },
        {
          "name": "tick",
          "type": "int24",
          "indexed": false,
          "internalType": "int24"
        },
        {
          "name": "fee",
          "type": "uint24",
          "indexed": false,
          "internalType": "uint24"
        }
      ],
      "anonymous": false
    },
    {
      "type": "event",
      "name": "Transfer",
      "inputs": [
        {
          "name": "caller",
          "type": "address",
          "indexed": false,
          "internalType": "address"
        },
        {
          "name": "from",
          "type": "address",
          "indexed": true,
          "internalType": "address"
        },
        {
          "name": "to",
          "type": "address",
          "indexed": true,
          "internalType": "address"
        },
        {
          "name": "id",
          "type": "uint256",
          "indexed": true,
          "internalType": "uint256"
        },
        {
          "name": "amount",
          "type": "uint256",
          "indexed": false,
          "internalType": "uint256"
        }
      ],
      "anonymous": false
    },
    {
      "type": "error",
      "name": "AlreadyUnlocked",
      "inputs": []
    },
    {
      "type": "error",
      "name": "CurrenciesOutOfOrderOrEqual",
      "inputs": [
        {
          "name": "currency0",
          "type": "address",
          "internalType": "address"
        },
        {
          "name": "currency1",
          "type": "address",
          "internalType": "address"
        }
      ]
    },
    {
      "type": "error",
      "name": "CurrencyNotSettled",
      "inputs": []
    },
    {
      "type": "error",
      "name": "DelegateCallNotAllowed",
      "inputs": []
    },
    {
      "type": "error",
      "name": "InvalidCaller",
      "inputs": []
    },
    {
      "type": "error",
      "name": "ManagerLocked",
      "inputs": []
    },
    {
      "type": "error",
      "name": "MustClearExactPositiveDelta",
      "inputs": []
    },
    {
      "type": "error",
      "name": "NonzeroNativeValue",
      "inputs": []
    },
    {
      "type": "error",
      "name": "PoolNotInitialized",
      "inputs": []
    },
    {
      "type": "error",
      "name": "ProtocolFeeCurrencySynced",
      "inputs": []
    },
    {
      "type": "error",
      "name": "ProtocolFeeTooLarge",
      "inputs": [
        {
          "name": "fee",
          "type": "uint24",
          "internalType": "uint24"
        }
      ]
    },
    {
      "type": "error",
      "name": "SwapAmountCannotBeZero",
      "inputs": []
    },
    {
      "type": "error",
      "name": "TickSpacingTooLarge",
      "inputs": [
        {
          "name": "tickSpacing",
          "type": "int24",
          "internalType": "int24"
        }
      ]
    },
    {
      "type": "error",
      "name": "TickSpacingTooSmall",
      "inputs": [
        {
          "name": "tickSpacing",
          "type": "int24",
          "internalType": "int24"
        }
      ]
    },
    {
      "type": "error",
      "name": "UnauthorizedDynamicLPFeeUpdate",
      "inputs": []
    }
  ],
  "bytecode": {
    "object": "0x60a0604052348015600e575f5ffd5b50604051615a0c380380615a0c833981016040819052602b91607f565b5f80546001600160a01b0319166001600160a01b038316908117825560405183928392917f8be0079c531659141344cd1fd0a4f28419497f9722a3daafe3b4186f6b6457e0908290a35050306080525060aa565b5f60208284031215608e575f5ffd5b81516001600160a01b038116811460a3575f5ffd5b9392505050565b60805161594a6100c25f395f611c43015261594a5ff3fe6080604052600436106101f4575f3560e01c80635a6bcfda11610117578063a5841194116100ac578063f135baaa1161007c578063f3cd914c11610062578063f3cd914c1461064f578063f5298aca1461066e578063fe99049a1461068d575f5ffd5b8063f135baaa14610611578063f2fde38b14610630575f5ffd5b8063a58411941461057b578063b6363cf21461059a578063dbd035ff146105d3578063f02de3b2146105f2575f5ffd5b80638161b874116100e75780638161b874146104dc5780638da5cb5b146104fb57806397e8cd4e146105315780639bf6645f1461055c575f5ffd5b80635a6bcfda146104385780636276cbbe1461046c5780637e87ce7d1461049e57806380f0b44c146104bd575f5ffd5b80632d7713891161018d57806348c894911161015d57806348c894911461039257806352759651146103be578063558a7297146103dd578063598af9e7146103fc575f5ffd5b80632d7713891461031557806335fd631a146103345780633dd45adb14610360578063426a849314610373575f5ffd5b806311da60b4116101c857806311da60b4146102b0578063156e29f6146102b85780631e2eaeaf146102d7578063234266d7146102f6575f5ffd5b8062fdd58e146101f857806301ffc9a714610241578063095bcdb6146102705780630b0d9c091461028f575b5f5ffd5b348015610203575f5ffd5b5061022e610212366004614b9e565b600460209081525f928352604080842090915290825290205481565b6040519081526020015b60405180910390f35b34801561024c575f5ffd5b5061026061025b366004614bc8565b6106ac565b6040519015158152602001610238565b34801561027b575f5ffd5b5061026061028a366004614c07565b610744565b34801561029a575f5ffd5b506102ae6102a9366004614c39565b6107fe565b005b61022e610862565b3480156102c3575f5ffd5b506102ae6102d2366004614c07565b6108a7565b3480156102e2575f5ffd5b5061022e6102f1366004614c77565b610905565b348015610301575f5ffd5b5061022e610310366004614dfa565b61090f565b348015610320575f5ffd5b506102ae61032f366004614e5f565b610a00565b34801561033f575f5ffd5b5061035361034e366004614e7a565b610ad9565b6040516102389190614e9a565b61022e61036e366004614e5f565b610b16565b34801561037e575f5ffd5b5061026061038d366004614c07565b610b5b565b34801561039d575f5ffd5b506103b16103ac366004614edc565b610bbf565b6040516102389190614f1b565b3480156103c9575f5ffd5b506102ae6103d8366004614f50565b610cf3565b3480156103e8575f5ffd5b506102606103f7366004614f91565b610d7b565b348015610407575f5ffd5b5061022e610416366004614c39565b600560209081525f938452604080852082529284528284209052825290205481565b348015610443575f5ffd5b50610457610452366004614fbb565b610e08565b60408051928352602083019190915201610238565b348015610477575f5ffd5b5061048b61048636600461505e565b610fba565b60405160029190910b8152602001610238565b3480156104a9575f5ffd5b506102ae6104b8366004614f50565b6111f6565b3480156104c8575f5ffd5b506102ae6104d7366004614b9e565b6112da565b3480156104e7575f5ffd5b5061022e6104f6366004614c39565b611373565b348015610506575f5ffd5b505f54610519906001600160a01b031681565b6040516001600160a01b039091168152602001610238565b34801561053c575f5ffd5b5061022e61054b366004614e5f565b60016020525f908152604090205481565b348015610567575f5ffd5b50610353610576366004615094565b61148d565b348015610586575f5ffd5b506102ae610595366004614e5f565b6114c6565b3480156105a5575f5ffd5b506102606105b4366004615105565b600360209081525f928352604080842090915290825290205460ff1681565b3480156105de575f5ffd5b506103536105ed366004615094565b611502565b3480156105fd575f5ffd5b50600254610519906001600160a01b031681565b34801561061c575f5ffd5b5061022e61062b366004614c77565b611539565b34801561063b575f5ffd5b506102ae61064a366004614e5f565b611543565b34801561065a575f5ffd5b5061022e610669366004615131565b611618565b348015610679575f5ffd5b506102ae610688366004614c07565b61178a565b348015610698575f5ffd5b506102606106a73660046151d1565b6117e8565b5f7f01ffc9a7000000000000000000000000000000000000000000000000000000007fffffffff000000000000000000000000000000000000000000000000000000008316148061073e57507f0f632fb3000000000000000000000000000000000000000000000000000000007fffffffff000000000000000000000000000000000000000000000000000000008316145b92915050565b335f90815260046020908152604080832085845290915281208054839190839061076f908490615228565b90915550506001600160a01b0384165f908152600460209081526040808320868452909152812080548492906107a690849061523b565b909155505060408051338082526020820185905285926001600160a01b038816927f1b3d7edb2e9c0b0e7c525b20aaaef0f5940d2ed71663c7d39266ecafac72885991015b60405180910390a45060015b9392505050565b7fc090fc4683624cfc3884e9d8de5eca132f2d0ec062aff75d43c0465d5ceeab235c610834576108346354e3ca0d60e01b61195a565b6108498361084183611962565b5f033361198e565b61085d6001600160a01b03841683836119e1565b505050565b5f7fc090fc4683624cfc3884e9d8de5eca132f2d0ec062aff75d43c0465d5ceeab235c610899576108996354e3ca0d60e01b61195a565b6108a233611ae4565b905090565b7fc090fc4683624cfc3884e9d8de5eca132f2d0ec062aff75d43c0465d5ceeab235c6108dd576108dd6354e3ca0d60e01b61195a565b816108eb8161084184611962565b6108ff846001600160a01b03831684611bb3565b50505050565b5f81545f5260205ff35b5f7fc090fc4683624cfc3884e9d8de5eca132f2d0ec062aff75d43c0465d5ceeab235c610946576109466354e3ca0d60e01b61195a565b61094e611c38565b60a086205f81815260066020526040902061096881611c93565b6080880151610984906001600160a01b03168989898989611ccd565b61098f818888611d63565b925061099c888433611e1f565b6040805188815260208101889052339184917f29ef05caaff9404b7cb6d1c0e9bbae9eaa7ab2541feba1a9c4248594c08156cb910160405180910390a360808801516109f5906001600160a01b03168989898989611e47565b505095945050505050565b5f546001600160a01b03163314610a78576040517f08c379a000000000000000000000000000000000000000000000000000000000815260206004820152600c60248201527f554e415554484f52495a4544000000000000000000000000000000000000000060448201526064015b60405180910390fd5b600280547fffffffffffffffffffffffff0000000000000000000000000000000000000000166001600160a01b0383169081179091556040517fb4bd8ef53df690b9943d3318996006dbb82a25f54719d8c8035b516a2a5b8acc905f90a250565b6060604051808360051b6020835284602084015260408301925080830190505b85548352602083019250600186019550808310610af95781810382f35b5f7fc090fc4683624cfc3884e9d8de5eca132f2d0ec062aff75d43c0465d5ceeab235c610b4d57610b4d6354e3ca0d60e01b61195a565b61073e82611ae4565b919050565b335f8181526005602090815260408083206001600160a01b03881680855290835281842087855290925280832085905551919285927fb3fd5071835887567a0671151121894ddccc2842f1d10bedad13e0d17cace9a7906107eb9087815260200190565b60607fc090fc4683624cfc3884e9d8de5eca132f2d0ec062aff75d43c0465d5ceeab235c15610c1157610c117f5090d6c60000000000000000000000000000000000000000000000000000000061195a565b610c19611ed2565b6040517f91dd734600000000000000000000000000000000000000000000000000000000815233906391dd734690610c579086908690600401615277565b5f604051808303815f875af1158015610c72573d5f5f3e3d5ffd5b505050506040513d5f823e601f3d908101601f19168201604052610c99919081019061528a565b90507f7d4b3164c6e45b97e7d87b7125a44c5828d005af88f9d751cfd78729c5d99a0b5c15610ceb57610ceb7f5212cba10000000000000000000000000000000000000000000000000000000061195a565b61073e611ef8565b604082015162ffffff1662800000141580610d24575081608001516001600160a01b0316336001600160a01b031614155b15610d5257610d527f30d216410000000000000000000000000000000000000000000000000000000061195a565b610d608162ffffff16611f1d565b60a082205f81815260066020526040902061085d9083611f5c565b335f8181526003602090815260408083206001600160a01b03871680855290835281842080547fffffffffffffffffffffffffffffffffffffffffffffffffffffffffffffff001687151590811790915591519182529293917fceb576d9f15e4e200fdb5096d64d5dfd667e16def20c1eefd14256d8e3faa267910160405180910390a350600192915050565b5f807fc090fc4683624cfc3884e9d8de5eca132f2d0ec062aff75d43c0465d5ceeab235c610e4057610e406354e3ca0d60e01b61195a565b610e48611c38565b60a086205f818152600660205260409020610e6281611c93565b6080880151610e7d906001600160a01b031689898989611fb5565b5f610ee46040518060c00160405280336001600160a01b031681526020018a5f015160020b81526020018a6020015160020b8152602001610ec18b604001516120e9565b600f0b81526060808d015160020b60208301528b01516040909101528390612105565b94509050610ef281856124c7565b94505050336001600160a01b0316817ff208f4912782fd25c7f114ca3723a2d5dd6f3bcc3ac8db5af63baa85f711d5ec885f015189602001518a604001518b60600151604051610f639493929190600294850b81529290930b60208301526040820152606081019190915260800190565b60405180910390a360808701515f90610f8a906001600160a01b0316898987878b8b6124fa565b90945090508015610fa457610fa488828a60800151611e1f565b610faf888533611e1f565b505094509492505050565b5f610fc3611c38565b6060830151617fff60029190910b1315611007576060830151611007907fb70024f80000000000000000000000000000000000000000000000000000000090612651565b600160020b836060015160020b121561104a57606083015161104a907fe9e905880000000000000000000000000000000000000000000000000000000090612651565b825160208401516001600160a01b039081169116106110955782516020840151611095917f6e6c98300000000000000000000000000000000000000000000000000000000091612660565b6110b9836040015184608001516001600160a01b031661268990919063ffffffff16565b6110ed5760808301516110ed907fe65af6a0000000000000000000000000000000000000000000000000000000009061274a565b5f611100846040015162ffffff1661275f565b608085015190915061111c906001600160a01b03168585612784565b60a084205f81815260066020526040902061113890858461280a565b925084602001516001600160a01b0316855f01516001600160a01b0316827fdd466e674ea557f56295e2d0218a125ea4b4f0f6f3307b95f85e6110838d6438886040015189606001518a608001518a8a6040516111cc95949392919062ffffff959095168552600293840b60208601526001600160a01b03928316604086015291166060840152900b608082015260a00190565b60405180910390a460808501516111ee906001600160a01b03168686866128a8565b505092915050565b6002546001600160a01b03163314611231576112317f48f5c3ed0000000000000000000000000000000000000000000000000000000061195a565b6103e9610fff821610623e900062fff00083161016611279576112797fa7abe2f70000000000000000000000000000000000000000000000000000000062ffffff831661274a565b60a0822061129b82611295835f90815260066020526040902090565b90612930565b60405162ffffff8316815281907fe9c42593e71f84403b84352cd168d693e2c9fcd1fdbcc3feb21d92b43e6696f99060200160405180910390a2505050565b7fc090fc4683624cfc3884e9d8de5eca132f2d0ec062aff75d43c0465d5ceeab235c611310576113106354e3ca0d60e01b61195a565b335f9081526001600160a01b038316602052604081205c9061133183611962565b90508181600f0b14611366576113667fbda73abf0000000000000000000000000000000000000000000000000000000061195a565b6108ff84825f033361198e565b6002545f906001600160a01b031633146113b0576113b07f48f5c3ed0000000000000000000000000000000000000000000000000000000061195a565b6001600160a01b038316151580156113f457506001600160a01b037f27e098c505d44ec3574004bca052aabf76bd35004c182099d8c575fb238593b95c8116908416145b15611422576114227fc79e59480000000000000000000000000000000000000000000000000000000061195a565b811561142e5781611447565b6001600160a01b0383165f908152600160205260409020545b6001600160a01b0384165f90815260016020526040812080549293508392909190611473908490615228565b909155506107f790506001600160a01b03841685836119e1565b606060405180602082528360208301526040820191508360051b8201855b80355c8452602093840193018184106114ab575b5081810382f35b6001600160a01b0381166114df576114dc612984565b50565b5f6114f2826001600160a01b03166129a9565b90506114fe8282612a3e565b5050565b606060405180602082528360208301526040820191508360051b8201855b803554845260209384019301818410156114bf57611520565b5f815c5f5260205ff35b5f546001600160a01b031633146115b6576040517f08c379a000000000000000000000000000000000000000000000000000000000815260206004820152600c60248201527f554e415554484f52495a454400000000000000000000000000000000000000006044820152606401610a6f565b5f80547fffffffffffffffffffffffff0000000000000000000000000000000000000000166001600160a01b0383169081178255604051909133917f8be0079c531659141344cd1fd0a4f28419497f9722a3daafe3b4186f6b6457e09190a350565b5f7fc090fc4683624cfc3884e9d8de5eca132f2d0ec062aff75d43c0465d5ceeab235c61164f5761164f6354e3ca0d60e01b61195a565b611657611c38565b83602001515f0361168b5761168b7fbe8b85070000000000000000000000000000000000000000000000000000000061195a565b60a085205f8181526006602052604090206116a581611c93565b60808701515f90819081906116c6906001600160a01b03168b8b8b8b612a91565b80935081955082945050505061173584866040518060a001604052808681526020018e6060015160020b81526020018d5f0151151581526020018d604001516001600160a01b031681526020018562ffffff168152508c5f015161172e578d60200151612bf8565b8d51612bf8565b60808b01519096505f925061175991506001600160a01b03168a8a888b8b88612cd6565b909550905080156117735761177389828b60800151611e1f565b61177e898633611e1f565b50505050949350505050565b7fc090fc4683624cfc3884e9d8de5eca132f2d0ec062aff75d43c0465d5ceeab235c6117c0576117c06354e3ca0d60e01b61195a565b816117d4816117ce84611962565b3361198e565b6108ff846001600160a01b03831684612e10565b5f336001600160a01b0386161480159061182557506001600160a01b0385165f90815260036020908152604080832033845290915290205460ff16155b15611895576001600160a01b0385165f90815260056020908152604080832033845282528083208684529091529020545f198114611893576118678382615228565b6001600160a01b0387165f90815260056020908152604080832033845282528083208884529091529020555b505b6001600160a01b0385165f908152600460209081526040808320868452909152812080548492906118c7908490615228565b90915550506001600160a01b0384165f908152600460209081526040808320868452909152812080548492906118fe90849061523b565b9091555050604080513381526020810184905284916001600160a01b0380881692908916917f1b3d7edb2e9c0b0e7c525b20aaaef0f5940d2ed71663c7d39266ecafac728859910160405180910390a45060015b949350505050565b805f5260045ffd5b5f6f80000000000000000000000000000000821061198a5761198a6393dafdf160e01b61195a565b5090565b81600f0b5f0361199d57505050565b5f806119b36001600160a01b0386168486612ece565b91509150805f036119cb576119c6612f07565b6119da565b815f036119da576119da612f55565b5050505050565b5f6001600160a01b038416611a2f575f5f5f5f85875af1905080611a2a57611a2a835f7ff4b3b1bc00000000000000000000000000000000000000000000000000000000612fa3565b6108ff565b6040517fa9059cbb0000000000000000000000000000000000000000000000000000000081526001600160a01b038416600482015282602482015260205f6044835f895af13d15601f3d1160015f511416171691505f81525f60208201525f604082015250806108ff576108ff847fa9059cbb000000000000000000000000000000000000000000000000000000007ff27f64e400000000000000000000000000000000000000000000000000000000612fa3565b5f7f27e098c505d44ec3574004bca052aabf76bd35004c182099d8c575fb238593b95c6001600160a01b038116611b1d57349150611b9a565b3415611b4c57611b4c7fb0ec849e0000000000000000000000000000000000000000000000000000000061195a565b7f1e0745a7db1623981f0b2a5d4232364c00787266eb75ad546f190e6cebe9bd955c5f611b816001600160a01b0384166129a9565b9050611b8d8282615228565b9350611b97612984565b50505b611bad81611ba784611962565b8561198e565b50919050565b6001600160a01b0383165f90815260046020908152604080832085845290915281208054839290611be590849061523b565b9091555050604080513381526020810183905283916001600160a01b038616915f917f1b3d7edb2e9c0b0e7c525b20aaaef0f5940d2ed71663c7d39266ecafac72885991015b60405180910390a4505050565b306001600160a01b037f00000000000000000000000000000000000000000000000000000000000000001614611c9157611c917f0d89438e0000000000000000000000000000000000000000000000000000000061195a565b565b80546001600160a01b03165f036114dc576114dc7f486aa3070000000000000000000000000000000000000000000000000000000061195a565b85336001600160a01b03821614611d5a576020871615611d5a57611d58338787878787604051602401611d059695949392919061531e565b60408051601f198184030181529190526020810180516001600160e01b03167fb6a8b0fa000000000000000000000000000000000000000000000000000000001790526001600160a01b03891690613064565b505b50505050505050565b60038301545f906001600160801b0316808203611da357611da37fa74f97ab0000000000000000000000000000000000000000000000000000000061195a565b611dd1611daf85611962565b5f03611dba85611962565b5f0360809190911b6001600160801b039091161790565b91508315611df5576001850180546001600160801b038316600160801b8702040190555b8215611e17576002850180546001600160801b038316600160801b8602040190555b509392505050565b8251611e3590611e2f8460801d90565b8361198e565b61085d8360200151611e2f84600f0b90565b85336001600160a01b03821614611d5a576010871615611d5a57611d58338787878787604051602401611e7f9695949392919061531e565b60408051601f198184030181529190526020810180516001600160e01b03167fe1b4af69000000000000000000000000000000000000000000000000000000001790526001600160a01b03891690613064565b60017fc090fc4683624cfc3884e9d8de5eca132f2d0ec062aff75d43c0465d5ceeab235d565b5f7fc090fc4683624cfc3884e9d8de5eca132f2d0ec062aff75d43c0465d5ceeab235d565b620f424062ffffff821611156114dc576114dc7f140021130000000000000000000000000000000000000000000000000000000062ffffff831661274a565b611f6582611c93565b81547fffffff000000ffffffffffffffffffffffffffffffffffffffffffffffffffff167cffffff000000000000000000000000000000000000000000000000000060d083901b16175b90915550565b84336001600160a01b038216146120e1575f8460400151138015611fdc5750610800861615155b15612056576120503386868686604051602401611ffd9594939291906153b6565b60408051601f198184030181529190526020810180516001600160e01b03167f259982e5000000000000000000000000000000000000000000000000000000001790526001600160a01b03881690613064565b506120e1565b5f84604001511315801561206d5750610200861615155b156120e157611d5a338686868660405160240161208e9594939291906153b6565b60408051601f198184030181529190526020810180516001600160e01b03167f21d0ee70000000000000000000000000000000000000000000000000000000001790526001600160a01b03881690613064565b505050505050565b80600f81900b8114610b5657610b566393dafdf160e01b61195a565b6060810151602082015160408301515f92839290916121248282613160565b604080516080810182525f80825260208201819052918101829052606081019190915283600f0b5f146122995761215d8884865f61320b565b6001600160801b031660208301521515815261217c888386600161320b565b6001600160801b03166060830152151560408201525f600f85900b1261225e5760808701515f9060020b620d89e71981810783139082900503620d89e891909105036001016001600160801b03049050806001600160801b031682602001516001600160801b03161115612214576122147fb8e3c3850000000000000000000000000000000000000000000000000000000085612651565b806001600160801b031682606001516001600160801b0316111561225c5761225c7fb8e3c3850000000000000000000000000000000000000000000000000000000084612651565b505b80511561227a57608087015161227a9060058a019085906132cc565b8060400151156122995760808701516122999060058a019084906132cc565b5f5f6122a68a868661331e565b8a5160a08c015160408051602681019290925260068083018a9052600383018b9052928252603a600c8301205f838301819052602080850182905293819052908152928f01909152812092945090925080612303838a87876133d2565b9150915061232f61231383611962565b61231c83611962565b6001600160801b031660809190911b1790565b995050505050505f84600f0b12156123985780511561236b57600283810b5f90815260048a016020526040812081815560018101829055909101555b80604001511561239857600282810b5f90815260048a016020526040812081815560018101829055909101555b5082600f0b5f146124bd5786545f806123b48360a01c60020b90565b6001600160a01b038416915091508460020b8260020b1215612403576123fc6123f66123f16123e2886134bc565b6123eb886134bc565b8a61378d565b6120e9565b60801b90565b97506124b9565b8360020b8260020b12156124945761243a6124246123f1836123eb886134bc565b61231c6123f1612433896134bc565b858b6137c5565b60038b0154909850612455906001600160801b0316876137f1565b60038b0180547fffffffffffffffffffffffffffffffff00000000000000000000000000000000166001600160801b03929092169190911790556124b9565b6124b65f61231c6123f16124a7896134bc565b6124b0896134bc565b8b6137c5565b97505b5050505b5050509250929050565b5f608082811d9084901d01600f83810b9085900b016124f16124e8836120e9565b61231c836120e9565b95945050505050565b5f806001600160a01b038916330361251657508490505f612645565b8591505f876040015113156125be576104008916156125b9576125aa3389898989898960405160240161254f9796959493929190615464565b60408051601f198184030181529190526020810180516001600160e01b03167f9f063efc0000000000000000000000000000000000000000000000000000000017905260028b1615155b6001600160a01b038c169190613818565b90506125b68282613872565b91505b612645565b61010089161561264557612636338989898989896040516024016125e89796959493929190615464565b60408051601f198184030181529190526020810180516001600160e01b03167f6c2bbe7e0000000000000000000000000000000000000000000000000000000017905260018b161515612599565b90506126428282613872565b91505b97509795505050505050565b815f528060020b60045260245ffd5b6040518381526001600160a01b03831660048201526001600160a01b0382166024820152604481fd5b5f6080831615801561269d57506008831615155b156126a957505f61073e565b604083161580156126bc57506004831615155b156126c857505f61073e565b61040083161580156126dc57506002831615155b156126e857505f61073e565b61010083161580156126fc57506001831615155b1561270857505f61073e565b6001600160a01b0383161561273957613fff831615158061273457506280000062ffffff8316146107f7565b6107f7565b5062ffffff16628000001415919050565b815f526001600160a01b03811660045260245ffd5b5f6280000062ffffff83160361277657505f919050565b61198a8262ffffff16611f1d565b82336001600160a01b038216146108ff576120008416156108ff576119da3384846040516024016127b793929190615520565b60408051601f198184030181529190526020810180516001600160e01b03167fdc98354e000000000000000000000000000000000000000000000000000000001790526001600160a01b03861690613064565b82545f906001600160a01b031615612845576128457f7983c0510000000000000000000000000000000000000000000000000000000061195a565b61284e83613893565b90507cffffff000000000000000000000000000000000000000000000000000060d083901b166001600160a01b03841660a083901b76ffffff00000000000000000000000000000000000000001617179093555090919050565b83336001600160a01b038216146119da576110008516156119da576120e1338585856040516024016128dd94939291906155a2565b60408051601f198184030181529190526020810180516001600160e01b03167f6fe7e6eb000000000000000000000000000000000000000000000000000000001790526001600160a01b03871690613064565b61293982611c93565b81547fffffffffffff000000ffffffffffffffffffffffffffffffffffffffffffffff1679ffffff000000000000000000000000000000000000000000000060b883901b1617611faf565b5f7f27e098c505d44ec3574004bca052aabf76bd35004c182099d8c575fb238593b95d565b5f6001600160a01b0382166129bf575047919050565b6040517f70a082310000000000000000000000000000000000000000000000000000000081523060048201526001600160a01b038316906370a0823190602401602060405180830381865afa158015612a1a573d5f5f3e3d5ffd5b505050506040513d601f19601f8201168201806040525081019061073e919061562f565b6001600160a01b0382167f27e098c505d44ec3574004bca052aabf76bd35004c182099d8c575fb238593b95d807f1e0745a7db1623981f0b2a5d4232364c00787266eb75ad546f190e6cebe9bd955d5050565b60208301515f806001600160a01b0388163303612ab0575f9150612bed565b6080881615612bed575f612b1f89338a8a8a8a604051602401612ad7959493929190615646565b60408051601f198184030181529190526020810180516001600160e01b03167f575e24b400000000000000000000000000000000000000000000000000000000179052613064565b90508051606014612b5357612b537f1e048e1d0000000000000000000000000000000000000000000000000000000061195a565b604088015162ffffff166280000003612b6e57606081015191505b6008891615612beb57604081015192505f612b898460801d90565b905080600f0b5f14612be9575f8512612ba6600f83900b876156ed565b955080612bb5575f8612612bb9565b5f86135b15612be757612be77ffa0b71d60000000000000000000000000000000000000000000000000000000061195a565b505b505b505b955095509592505050565b5f80808080612c078988613b90565b93509350935093505f831115612c35576001600160a01b0386165f9081526001602052604090208054840190555b33887f40e9cecb9f5f1f1c5b9c97dec2917b7ee92e57ba5563708daca94dd84ad7112f612c628760801d90565b612c6c88600f0b90565b85516040808801516020808a01518351600f97880b81529590960b908501526001600160a01b03909216908301526001600160801b0316606082015260029190910b608082015262ffffff861660a082015260c00160405180910390a35091979650505050505050565b5f806001600160a01b0389163303612cf257508490505f612645565b5f612cfd8460801d90565b90505f612d0a85600f0b90565b905060408b1615612d9d57612d906123f1338c8c8c8c8c604051602401612d369695949392919061570c565b60408051601f198184030181529190526020810180516001600160e01b03167fb47b2fb10000000000000000000000000000000000000000000000000000000017905260048e1615156001600160a01b038f169190613818565b612d9a90826157ba565b90505b5f81600f0b5f141580612db3575082600f0b5f14155b15612dfe57895160208b01515f1390151514612dde576001600160801b038316608083901b17612def565b6001600160801b038216608084901b175b9050612dfb8982613872565b98505b979b979a509698505050505050505050565b336001600160a01b0384168114801590612e4f57506001600160a01b038085165f9081526003602090815260408083209385168352929052205460ff16155b15612ec3576001600160a01b038085165f9081526005602090815260408083209385168352928152828220868352905220545f198114612ec157612e938382615228565b6001600160a01b038087165f9081526005602090815260408083209387168352928152828220888352905220555b505b6108ff8484846142bb565b6001600160a01b038281165f90815290841660205260408120805c9190612ef9600f85900b846156ed565b915081815d50935093915050565b7f7d4b3164c6e45b97e7d87b7125a44c5828d005af88f9d751cfd78729c5d99a0b5c600181039050807f7d4b3164c6e45b97e7d87b7125a44c5828d005af88f9d751cfd78729c5d99a0b5d50565b7f7d4b3164c6e45b97e7d87b7125a44c5828d005af88f9d751cfd78729c5d99a0b5c600181019050807f7d4b3164c6e45b97e7d87b7125a44c5828d005af88f9d751cfd78729c5d99a0b5d50565b6040517f90bfb865000000000000000000000000000000000000000000000000000000008082526001600160a01b03851660048301527fffffffff0000000000000000000000000000000000000000000000000000000084166024830152608060448301526020601f3d018190040260a0810160648401523d608484015290913d5f60a483013e60048260a4018201527fffffffff0000000000000000000000000000000000000000000000000000000084168260c4018201528160e40181fd5b60605f5f5f8451602086015f885af19050806130ad576130ad8461308785615808565b7fa9e35b2f00000000000000000000000000000000000000000000000000000000612fa3565b6040519150601f19603f3d011682016040523d82523d5f602084013e60208251108061312b575060208301517fffffffff0000000000000000000000000000000000000000000000000000000016613106836020015190565b7fffffffff000000000000000000000000000000000000000000000000000000001614155b15613159576131597f1e048e1d0000000000000000000000000000000000000000000000000000000061195a565b5092915050565b8060020b8260020b12613198576131987fc4433ed5000000000000000000000000000000000000000000000000000000008383614337565b620d89e719600283900b12156131d2576131d27fd5e2f7ab0000000000000000000000000000000000000000000000000000000083612651565b620d89e8600282900b13156114fe576114fe7f1ad777f80000000000000000000000000000000000000000000000000000000082612651565b600283900b5f908152600485016020526040812080548291906001600160801b03811690600160801b9004600f0b61324382886137f1565b6001600160801b03808216159084168015919091141596509094505f0361328d57885460a01c60020b60020b8860020b1361328d576001808a0154908401556002808a0154908401555b5f866132a25761329d88836157ba565b6132ac565b6132ac8883615874565b90508060801b6001600160801b0386161784555050505094509492505050565b600291820b910b808207156132f95760405163d4d8f3e681528260208201528160408201526044601c8201fd5b80820591508160081d5f528260205260405f20600160ff84161b815418815550505050565b600282810b5f81815260048601602052604080822085850b83529082208754929485949293919260a09290921c900b908112156133745781600101548360010154039450816002015483600201540393506133c7565b8560020b8160020b126133a05782600101548260010154039450826002015482600201540393506133c7565b81600101548360010154896001015403039450816002015483600201548960020154030393505b505050935093915050565b83545f9081906001600160801b0316600f86900b820361342a57806001600160801b03165f03613425576134257faefeb9240000000000000000000000000000000000000000000000000000000061195a565b613468565b61343481876137f1565b87547fffffffffffffffffffffffffffffffff00000000000000000000000000000000166001600160801b03919091161787555b61348687600101548603826001600160801b0316600160801b614354565b92506134a687600201548503826001600160801b0316600160801b614354565b6001880195909555505060029094015591929050565b60020b5f60ff82901d80830118620d89e88111156134fe576134fe7f8b86327a0000000000000000000000000000000000000000000000000000000084612651565b7001fffcb933bd6fad37aa2d162d1a5940016001821602600160801b18600282161561353a576ffff97272373d413259a46990580e213a0260801c5b6004821615613559576ffff2e50f5f656932ef12357cf3c7fdcc0260801c5b6008821615613578576fffe5caca7e10e4e61c3624eaa0941cd00260801c5b6010821615613597576fffcb9843d60f6159c9db58835c9266440260801c5b60208216156135b6576fff973b41fa98c081472e6896dfb254c00260801c5b60408216156135d5576fff2ea16466c96a3843ec78b326b528610260801c5b60808216156135f4576ffe5dee046a99a2a811c461f1969c30530260801c5b610100821615613614576ffcbe86c7900a88aedcffc83b479aa3a40260801c5b610200821615613634576ff987a7253ac413176f2b074cf7815e540260801c5b610400821615613654576ff3392b0822b70005940c7a398e4b70f30260801c5b610800821615613674576fe7159475a2c29b7443b29c7fa6e889d90260801c5b611000821615613694576fd097f3bdfd2022b8845ad8f792aa58250260801c5b6120008216156136b4576fa9f746462d870fdf8a65dc1f90e061e50260801c5b6140008216156136d4576f70d869a156d2a1b890bb3df62baf32f70260801c5b6180008216156136f4576f31be135f97d08fd981231505542fcfa60260801c5b62010000821615613715576f09aa508b5b7a84e1c677de54f3e99bc90260801c5b62020000821615613735576e5d6af8dedb81196699c329225ee6040260801c5b62040000821615613754576d2216e584f5fa1ea926041bedfe980260801c5b62080000821615613771576b048a170391f7dc42444e8fa20260801c5b5f84131561377d575f19045b63ffffffff0160201c9392505050565b5f5f82600f0b126137b4576137ad6137a885858560016143f0565b6144c5565b5f03611952565b6119526137a88585855f035f6143f0565b5f5f82600f0b126137e0576137ad6137a885858560016144de565b6119526137a88585855f035f6144de565b6001600160801b038216600f82900b01608081901c1561073e576393dafdf15f526004601cfd5b5f5f6138248585613064565b905082613834575f9150506107f7565b8051604014613866576138667f1e048e1d0000000000000000000000000000000000000000000000000000000061195a565b60400151949350505050565b5f608082811d9084901d03600f83810b9085900b036124f16124e8836120e9565b5f73fffd8963efd1fc6a506488495d951d51639616827ffffffffffffffffffffffffffffffffffffffffffffffffffffffffefffd895d83016001600160a01b03161115613905576139057f61487524000000000000000000000000000000000000000000000000000000008361274a565b77ffffffffffffffffffffffffffffffffffffffff00000000602083901b16805f61392f82614533565b60ff1690506080811061394a57607f810383901c9150613954565b80607f0383901b91505b908002607f81811c60ff83811c9190911c800280831c81831c1c800280841c81841c1c800280851c81851c1c800280861c81861c1c800280871c81871c1c800280881c81881c1c800280891c81891c1c8002808a1c818a1c1c8002808b1c818b1c1c8002808c1c818c1c1c8002808d1c818d1c1c8002808e1c9c81901c9c909c1c80029c8d901c9e9d7fffffffffffffffffffffffffffffffffffffffffffffffffffffffffffffff808f0160401b60c09190911c678000000000000000161760c19b909b1c674000000000000000169a909a1760c29990991c672000000000000000169890981760c39790971c671000000000000000169690961760c49590951c670800000000000000169490941760c59390931c670400000000000000169290921760c69190911c670200000000000000161760c79190911c670100000000000000161760c89190911c6680000000000000161760c99190911c6640000000000000161760ca9190911c6620000000000000161760cb9190911c6610000000000000161760cc9190911c6608000000000000161760cd9190911c66040000000000001617693627a301d71055774c8581027ffffffffffffffffffffffffffffffffffd709b7e5480fba5a50fed5e62ffc5568101608090811d906fdb2df09e81959a81455e260799a0632f8301901d600281810b9083900b14613b8157886001600160a01b0316613b66826134bc565b6001600160a01b03161115613b7b5781613b83565b80613b83565b815b9998505050505050505050565b604080516060810182525f8082526020820181905291810182905281908190855460408601515f81613bca57610fff60c484901c16613bd4565b610fff60b884901c165b88516001600160a01b038516865261ffff9190911691505f60a085901c60020b60020b602087015260038b01546001600160801b0316604087015260808a01515f906240000016613c2e5760d086901c62ffffff16613c40565b613c408b6080015162ffffff166145be565b90508315613c6657620f4240610fff851662ffffff831681810292909204910103613c68565b805b975050620f42408762ffffff1610613cac5789515f1215613cac57613cac7f962062460000000000000000000000000000000000000000000000000000000061195a565b89515f03613cc4575f5f9850985050505050506142b2565b8315613d735760608a01516001600160a01b03868116911610613d1c57613d1c6001600160a01b0386165b60608c01517f7c9c6e8f000000000000000000000000000000000000000000000000000000009190612660565b6401000276a36001600160a01b03168a606001516001600160a01b031611613d6e5760608a0151613d6e907f9e4d7cc7000000000000000000000000000000000000000000000000000000009061274a565b613dfd565b60608a01516001600160a01b03868116911611613d9c57613d9c6001600160a01b038616613cef565b73fffd8963efd1fc6a506488495d951d5263988d266001600160a01b03168a606001516001600160a01b031610613dfd5760608a0151613dfd907f9e4d7cc7000000000000000000000000000000000000000000000000000000009061274a565b60408051610100810182525f80825260208201819052918101829052606081018290526080810182905260a0810182905260c0810182905260e081019190915284613e4c578b60020154613e52565b8b600101545b60e08201525b821580613e7d57508a606001516001600160a01b0316875f01516001600160a01b0316145b61415d5786516001600160a01b03168152602080880151908c0151613ea79160058f0191886145cd565b1515604083015260020b60208201819052620d89e71912613ecd57620d89e71960208201525b620d89e860020b816020015160020b12613eeb57620d89e860208201525b613ef881602001516134bc565b6001600160a01b0390811660608381018290528951908e0151613f35939192911680821891811160018a161891909102188960400151868c6146ba565b60c085015260a084015260808301526001600160a01b031687528a515f1215613f9157613f658160a001516144c5565b83039250613f808160c0015182608001516137a8919061523b565b613f8a90836158c2565b9150613fc2565b613fa48160c001518260800151016144c5565b83019250613fb58160a001516144c5565b613fbf90836156ed565b91505b8315614011575f848962ffffff1614613ff957620f4240858360c001518460800151010281613ff357613ff36158e1565b04613fff565b8160c001515b60c08301805182900390529990990198505b60408701516001600160801b031615614051576140458160c00151600160801b89604001516001600160801b031691020490565b60e08201805190910190525b80606001516001600160a01b0316875f01516001600160a01b03160361413757806040015115614112575f5f86614091578d600101548360e0015161409c565b8260e001518e600201545b915091505f6140e78f85602001518585600292830b5f90815260049094016020526040909320600181018054909203909155908101805490920390915554600160801b9004600f0b90565b905087156140f2575f035b6141008a60400151826137f1565b6001600160801b031660408b01525050505b8461412157806020015161412a565b60018160200151035b60020b6020880152613e58565b805187516001600160a01b0390811691161461415857865161412a90613893565b613e58565b865160208801516141e591906141b490899060a01b76ffffff0000000000000000000000000000000000000000167fffffffffffffffffff000000ffffffffffffffffffffffffffffffffffffffff919091161790565b7fffffffffffffffffffffffff0000000000000000000000000000000000000000166001600160a01b039091161790565b8c55604087015160038d01546001600160801b0390811691161461424257604087015160038d0180547fffffffffffffffffffffffffffffffff00000000000000000000000000000000166001600160801b039092169190911790555b846142565760e081015160028d0155614261565b60e081015160018d01555b8a515f138515151461428e57614287614279836120e9565b61231c858e5f0151036120e9565b99506142ab565b6142a861429f848d5f0151036120e9565b61231c846120e9565b99505b5050505050505b92959194509250565b6001600160a01b0383165f908152600460209081526040808320858452909152812080548392906142ed908490615228565b9091555050604080513381526020810183905283915f916001600160a01b038716917f1b3d7edb2e9c0b0e7c525b20aaaef0f5940d2ed71663c7d39266ecafac7288599101611c2b565b6040518381528260020b60048201528160020b6024820152604481fd5b5f838302815f1985870982811083820303915050808411614373575f5ffd5b805f03614385575082900490506107f7565b5f848688095f868103871696879004966002600389028118808a02820302808a02820302808a02820302808a02820302808a02820302808a02909103029181900381900460010186841190950394909402919094039290920491909117919091029150509392505050565b5f836001600160a01b0316856001600160a01b0316111561440f579293925b6001600160a01b0385166144295762bfc9215f526004601cfd5b7bffffffffffffffffffffffffffffffff000000000000000000000000606084901b166001600160a01b03868603168361448e57866001600160a01b031661447b8383896001600160a01b0316614354565b81614488576144886158e1565b046144ba565b6144ba6144a58383896001600160a01b031661481d565b886001600160a01b0316808204910615150190565b979650505050505050565b805f811215610b5657610b566393dafdf160e01b61195a565b5f6001600160a01b038481169086160360ff81901d908101186c010000000000000000000000006001600160801b03851661451a818484614354565b9350845f83858409111684019350505050949350505050565b5f5f821161453f575f5ffd5b507f0706060506020500060203020504000106050205030304010505030400000000601f6f8421084210842108cc6318c6db6d54be6001600160801b03841160071b84811c67ffffffffffffffff1060061b1784811c63ffffffff1060051b1784811c61ffff1060041b1784811c60ff1060031b1793841c1c161a1790565b62bfffff8116610b5681611f1d565b5f80600284810b9086900b818107831391900503831561464c57600281900b60081d600181900b5f908152602089905260409020545f1960ff808516908190039190911c91821680151595509091908561462e57888360ff16860302614641565b8861463882614533565b840360ff168603025b9650505050506146b0565b6001908101600281900b60081d80830b5f90815260208a905260409020545f1960ff841694851b01199081168015159550929391928561469657888360ff0360ff168601026146a9565b88836146a18361484d565b0360ff168601025b9650505050505b5094509492505050565b5f80808062ffffff85166001600160a01b03808a16908b1610158288128015614790575f6146f38a5f0385620f424003620f4240614354565b90508261470c576147078d8d8d60016144de565b614719565b6147198c8e8d60016143f0565b965086811061474d578b9750620f424084146147445761473f878586620f42400361481d565b614746565b865b9450614766565b80965061475c8d8c83866148e7565b9750868a5f030394505b8261477c576147778d898d5f6143f0565b614788565b614788888e8d5f6144de565b95505061480e565b816147a6576147a18c8c8c5f6143f0565b6147b2565b6147b28b8d8c5f6144de565b94508489106147c3578a96506147d5565b8894506147d28c8b8785614935565b96505b816147ec576147e78c888c60016144de565b6147f9565b6147f9878d8c60016143f0565b955061480b868485620f42400361481d565b93505b50505095509550955095915050565b5f614829848484614354565b90508180614839576148396158e1565b838509156107f757600101806107f7575f5ffd5b5f5f8211614859575f5ffd5b507e1f0d1e100c1d070f090b19131c1706010e11080a1a141802121b15031604055f8290039091166101e07f804040554300526644320000502061067405302602000010750620017611707760fc7fb6db6db6ddddddddd34d34d349249249210842108c6318c639ce739cffffffff840260f81c161b60f71c1690811c63d76453e004601f169190911a1790565b5f6001600160801b038416156001600160a01b03861615171561491157634f2461b85f526004601cfd5b81614928576149238585856001614978565b6124f1565b6124f18585856001614a75565b5f6001600160801b038416156001600160a01b03861615171561495f57634f2461b85f526004601cfd5b81614970576149238585855f614a75565b6124f18585855f5b5f81156149f1575f6001600160a01b038411156149b5576149b0846c01000000000000000000000000876001600160801b0316614354565b6149cc565b6149cc6001600160801b038616606086901b6158f5565b90506149e96149e4826001600160a01b03891661523b565b614b69565b915050611952565b5f6001600160a01b03841115614a2757614a22846c01000000000000000000000000876001600160801b031661481d565b614a44565b614a44606085901b6001600160801b038716808204910615150190565b9050806001600160a01b03871611614a6357634323a5555f526004601cfd5b6001600160a01b038616039050611952565b5f825f03614a84575083611952565b7bffffffffffffffffffffffffffffffff000000000000000000000000606085901b168215614b28576001600160a01b03861684810290858281614aca57614aca6158e1565b0403614afa57818101828110614af857614aee83896001600160a01b03168361481d565b9350505050611952565b505b506149e98185614b136001600160a01b038a16836158f5565b614b1d919061523b565b808204910615150190565b6001600160a01b038616848102908582041481831116614b4f5763f5c787f15f526004601cfd5b808203614aee6149e4846001600160a01b038b168461481d565b806001600160a01b0381168114610b5657610b566393dafdf160e01b61195a565b6001600160a01b03811681146114dc575f5ffd5b5f5f60408385031215614baf575f5ffd5b8235614bba81614b8a565b946020939093013593505050565b5f60208284031215614bd8575f5ffd5b81357fffffffff00000000000000000000000000000000000000000000000000000000811681146107f7575f5ffd5b5f5f5f60608486031215614c19575f5ffd5b8335614c2481614b8a565b95602085013595506040909401359392505050565b5f5f5f60608486031215614c4b575f5ffd5b8335614c5681614b8a565b92506020840135614c6681614b8a565b929592945050506040919091013590565b5f60208284031215614c87575f5ffd5b5035919050565b634e487b7160e01b5f52604160045260245ffd5b6040516080810167ffffffffffffffff81118282101715614cc557614cc5614c8e565b60405290565b604051601f8201601f1916810167ffffffffffffffff81118282101715614cf457614cf4614c8e565b604052919050565b803562ffffff81168114610b56575f5ffd5b8035600281900b8114610b56575f5ffd5b5f60a08284031215614d2f575f5ffd5b60405160a0810167ffffffffffffffff81118282101715614d5257614d52614c8e565b6040529050808235614d6381614b8a565b81526020830135614d7381614b8a565b6020820152614d8460408401614cfc565b6040820152614d9560608401614d0e565b60608201526080830135614da881614b8a565b6080919091015292915050565b5f5f83601f840112614dc5575f5ffd5b50813567ffffffffffffffff811115614ddc575f5ffd5b602083019150836020828501011115614df3575f5ffd5b9250929050565b5f5f5f5f5f6101008688031215614e0f575f5ffd5b614e198787614d1f565b945060a0860135935060c0860135925060e086013567ffffffffffffffff811115614e42575f5ffd5b614e4e88828901614db5565b969995985093965092949392505050565b5f60208284031215614e6f575f5ffd5b81356107f781614b8a565b5f5f60408385031215614e8b575f5ffd5b50508035926020909101359150565b602080825282518282018190525f918401906040840190835b81811015614ed1578351835260209384019390920191600101614eb3565b509095945050505050565b5f5f60208385031215614eed575f5ffd5b823567ffffffffffffffff811115614f03575f5ffd5b614f0f85828601614db5565b90969095509350505050565b602081525f82518060208401528060208501604085015e5f604082850101526040601f19601f83011684010191505092915050565b5f5f60c08385031215614f61575f5ffd5b614f6b8484614d1f565b9150614f7960a08401614cfc565b90509250929050565b80358015158114610b56575f5ffd5b5f5f60408385031215614fa2575f5ffd5b8235614fad81614b8a565b9150614f7960208401614f82565b5f5f5f5f848603610140811215614fd0575f5ffd5b614fda8787614d1f565b94506080609f1982011215614fed575f5ffd5b50614ff6614ca2565b61500260a08701614d0e565b815261501060c08701614d0e565b602082015260e086013560408201526101008601356060820152925061012085013567ffffffffffffffff811115615046575f5ffd5b61505287828801614db5565b95989497509550505050565b5f5f60c0838503121561506f575f5ffd5b6150798484614d1f565b915060a083013561508981614b8a565b809150509250929050565b5f5f602083850312156150a5575f5ffd5b823567ffffffffffffffff8111156150bb575f5ffd5b8301601f810185136150cb575f5ffd5b803567ffffffffffffffff8111156150e1575f5ffd5b8560208260051b84010111156150f5575f5ffd5b6020919091019590945092505050565b5f5f60408385031215615116575f5ffd5b823561512181614b8a565b9150602083013561508981614b8a565b5f5f5f5f848603610120811215615146575f5ffd5b6151508787614d1f565b94506060609f1982011215615163575f5ffd5b506040516060810167ffffffffffffffff8111828210171561518757615187614c8e565b60405261519660a08701614f82565b815260c0860135602082015260e08601356151b081614b8a565b6040820152925061010085013567ffffffffffffffff811115615046575f5ffd5b5f5f5f5f608085870312156151e4575f5ffd5b84356151ef81614b8a565b935060208501356151ff81614b8a565b93969395505050506040820135916060013590565b634e487b7160e01b5f52601160045260245ffd5b8181038181111561073e5761073e615214565b8082018082111561073e5761073e615214565b81835281816020850137505f602082840101525f6020601f19601f840116840101905092915050565b602081525f61195260208301848661524e565b5f6020828403121561529a575f5ffd5b815167ffffffffffffffff8111156152b0575f5ffd5b8201601f810184136152c0575f5ffd5b805167ffffffffffffffff8111156152da576152da614c8e565b6152ed6020601f19601f84011601614ccb565b818152856020838501011115615301575f5ffd5b8160208401602083015e5f91810160200191909152949350505050565b6001600160a01b038716815261538560208201876001600160a01b0381511682526001600160a01b03602082015116602083015262ffffff6040820151166040830152606081015160020b60608301526001600160a01b0360808201511660808301525050565b8460c08201528360e08201526101206101008201525f6153aa6101208301848661524e565b98975050505050505050565b6001600160a01b038616815261541d60208201866001600160a01b0381511682526001600160a01b03602082015116602083015262ffffff6040820151166040830152606081015160020b60608301526001600160a01b0360808201511660808301525050565b8351600290810b60c08301526020850151900b60e0820152604084015161010082015260608401516101208201526101606101408201525f6144ba6101608301848661524e565b6001600160a01b03881681526154cb60208201886001600160a01b0381511682526001600160a01b03602082015116602083015262ffffff6040820151166040830152606081015160020b60608301526001600160a01b0360808201511660808301525050565b8551600290810b60c08301526020870151900b60e08201526040860151610100820152606086015161012082015284610140820152836101608201526101a06101808201525f613b836101a08301848661524e565b6001600160a01b038416815260e0810161558b60208301856001600160a01b0381511682526001600160a01b03602082015116602083015262ffffff6040820151166040830152606081015160020b60608301526001600160a01b0360808201511660808301525050565b6001600160a01b03831660c0830152949350505050565b6001600160a01b0385168152610100810161560e60208301866001600160a01b0381511682526001600160a01b03602082015116602083015262ffffff6040820151166040830152606081015160020b60608301526001600160a01b0360808201511660808301525050565b6001600160a01b03841660c08301528260020b60e083015295945050505050565b5f6020828403121561563f575f5ffd5b5051919050565b6001600160a01b03861681526156ad60208201866001600160a01b0381511682526001600160a01b03602082015116602083015262ffffff6040820151166040830152606081015160020b60608301526001600160a01b0360808201511660808301525050565b8351151560c0820152602084015160e082015260408401516001600160a01b03166101008201526101406101208201525f6144ba6101408301848661524e565b8082018281125f8312801582168215821617156111ee576111ee615214565b6001600160a01b038716815261577360208201876001600160a01b0381511682526001600160a01b03602082015116602083015262ffffff6040820151166040830152606081015160020b60608301526001600160a01b0360808201511660808301525050565b8451151560c0820152602085015160e082015260408501516001600160a01b0316610100820152836101208201526101606101408201525f6153aa6101608301848661524e565b600f81810b9083900b016f7fffffffffffffffffffffffffffffff81137fffffffffffffffffffffffffffffffff800000000000000000000000000000008212171561073e5761073e615214565b805160208201517fffffffff0000000000000000000000000000000000000000000000000000000081169190600482101561586d577fffffffff00000000000000000000000000000000000000000000000000000000808360040360031b1b82161692505b5050919050565b600f82810b9082900b037fffffffffffffffffffffffffffffffff8000000000000000000000000000000081126f7fffffffffffffffffffffffffffffff8213171561073e5761073e615214565b8181035f83128015838313168383128216171561315957613159615214565b634e487b7160e01b5f52601260045260245ffd5b5f8261590f57634e487b7160e01b5f52601260045260245ffd5b50049056fea26469706673582212208dd3b1728e3bcaad66bd612609c3534a86388dee641b090a63ebd301593169e364736f6c634300081c0033",
    "linkReferences": {}
  },
  "methodIdentifiers": {
    "allowance(address,address,uint256)": "598af9e7",
    "approve(address,uint256,uint256)": "426a8493",
    "balanceOf(address,uint256)": "00fdd58e",
    "burn(address,uint256,uint256)": "f5298aca",
    "clear(address,uint256)": "80f0b44c",
    "collectProtocolFees(address,address,uint256)": "8161b874",
    "donate((address,address,uint24,int24,address),uint256,uint256,bytes)": "234266d7",
    "extsload(bytes32)": "1e2eaeaf",
    "extsload(bytes32,uint256)": "35fd631a",
    "extsload(bytes32[])": "dbd035ff",
    "exttload(bytes32)": "f135baaa",
    "exttload(bytes32[])": "9bf6645f",
    "initialize((address,address,uint24,int24,address),uint160)": "6276cbbe",
    "isOperator(address,address)": "b6363cf2",
    "mint(address,uint256,uint256)": "156e29f6",
    "modifyLiquidity((address,address,uint24,int24,address),(int24,int24,int256,bytes32),bytes)": "5a6bcfda",
    "owner()": "8da5cb5b",
    "protocolFeeController()": "f02de3b2",
    "protocolFeesAccrued(address)": "97e8cd4e",
    "setOperator(address,bool)": "558a7297",
    "setProtocolFee((address,address,uint24,int24,address),uint24)": "7e87ce7d",
    "setProtocolFeeController(address)": "2d771389",
    "settle()": "11da60b4",
    "settleFor(address)": "3dd45adb",
    "supportsInterface(bytes4)": "01ffc9a7",
    "swap((address,address,uint24,int24,address),(bool,int256,uint160),bytes)": "f3cd914c",
    "sync(address)": "a5841194",
    "take(address,address,uint256)": "0b0d9c09",
    "transfer(address,uint256,uint256)": "095bcdb6",
    "transferFrom(address,address,uint256,uint256)": "fe99049a",
    "transferOwnership(address)": "f2fde38b",
    "unlock(bytes)": "48c89491",
    "updateDynamicLPFee((address,address,uint24,int24,address),uint24)": "52759651"
  }
}